{
    "_format": "hh-sol-artifact-1",
    "contractName": "ACL",
    "sourceName": "contracts/core/ACL.sol",
    "abi": [
        {
            "inputs": [],
            "name": "HandlesListIsEmpty",
            "type": "error"
        },
        {
            "inputs": [],
            "name": "InvalidInitialization",
            "type": "error"
        },
        {
            "inputs": [],
            "name": "NotInitializing",
            "type": "error"
        },
        {
            "inputs": [
                {
                    "internalType": "address",
                    "name": "owner",
                    "type": "address"
                }
            ],
            "name": "OwnableInvalidOwner",
            "type": "error"
        },
        {
            "inputs": [
                {
                    "internalType": "address",
                    "name": "account",
                    "type": "address"
                }
            ],
            "name": "OwnableUnauthorizedAccount",
            "type": "error"
        },
        {
            "inputs": [
                {
                    "internalType": "address",
                    "name": "sender",
                    "type": "address"
                }
            ],
            "name": "SenderNotAllowed",
            "type": "error"
        },
        {
            "anonymous": false,
            "inputs": [
                {
                    "indexed": true,
                    "internalType": "address",
                    "name": "caller",
                    "type": "address"
                },
                {
                    "indexed": true,
                    "internalType": "address",
                    "name": "account",
                    "type": "address"
                },
                {
                    "indexed": false,
                    "internalType": "bytes32",
                    "name": "handle",
                    "type": "bytes32"
                }
            ],
            "name": "Allowed",
            "type": "event"
        },
        {
            "anonymous": false,
            "inputs": [
                {
                    "indexed": true,
                    "internalType": "address",
                    "name": "caller",
                    "type": "address"
                },
                {
                    "indexed": false,
                    "internalType": "bytes32[]",
                    "name": "handlesList",
                    "type": "bytes32[]"
                }
            ],
            "name": "AllowedForDecryption",
            "type": "event"
        },
        {
            "anonymous": false,
            "inputs": [
                {
                    "indexed": false,
                    "internalType": "uint64",
                    "name": "version",
                    "type": "uint64"
                }
            ],
            "name": "Initialized",
            "type": "event"
        },
        {
            "anonymous": false,
            "inputs": [
                {
                    "indexed": true,
                    "internalType": "address",
                    "name": "previousOwner",
                    "type": "address"
                },
                {
                    "indexed": true,
                    "internalType": "address",
                    "name": "newOwner",
                    "type": "address"
                }
            ],
            "name": "OwnershipTransferred",
            "type": "event"
        },
        {
            "inputs": [
                {
                    "internalType": "bytes32",
                    "name": "handle",
                    "type": "bytes32"
                },
                {
                    "internalType": "address",
                    "name": "account",
                    "type": "address"
                },
                {
                    "internalType": "enum PermissionType",
                    "name": "pt",
                    "type": "uint8"
                }
            ],
            "name": "accessPolicy",
            "outputs": [],
            "stateMutability": "nonpayable",
            "type": "function"
        },
        {
            "inputs": [
                {
                    "internalType": "bytes32",
                    "name": "handle",
                    "type": "bytes32"
                },
                {
                    "internalType": "address",
                    "name": "account",
                    "type": "address"
                }
            ],
            "name": "accessPolicy",
            "outputs": [],
            "stateMutability": "nonpayable",
            "type": "function"
        },
        {
            "inputs": [
                {
                    "internalType": "bytes32",
                    "name": "handle",
                    "type": "bytes32"
                },
                {
                    "internalType": "address",
                    "name": "account",
                    "type": "address"
                }
            ],
            "name": "allow",
            "outputs": [],
            "stateMutability": "nonpayable",
            "type": "function"
        },
        {
            "inputs": [
                {
                    "internalType": "bytes32[]",
                    "name": "handlesList",
                    "type": "bytes32[]"
                }
            ],
            "name": "allowForDecryption",
            "outputs": [],
            "stateMutability": "nonpayable",
            "type": "function"
        },
        {
            "inputs": [
                {
                    "internalType": "bytes32",
                    "name": "handle",
                    "type": "bytes32"
                },
                {
                    "internalType": "address",
                    "name": "account",
                    "type": "address"
                }
            ],
            "name": "allowTransient",
            "outputs": [],
            "stateMutability": "nonpayable",
            "type": "function"
        },
        {
            "inputs": [
                {
                    "internalType": "bytes32",
                    "name": "handle",
                    "type": "bytes32"
                },
                {
                    "internalType": "address",
                    "name": "account",
                    "type": "address"
                }
            ],
            "name": "allowedTransient",
            "outputs": [
                {
                    "internalType": "bool",
                    "name": "",
                    "type": "bool"
                }
            ],
            "stateMutability": "view",
            "type": "function"
        },
        {
            "inputs": [],
            "name": "cleanTransientStorage",
            "outputs": [],
            "stateMutability": "nonpayable",
            "type": "function"
        },
        {
            "inputs": [],
            "name": "getVersion",
            "outputs": [
                {
                    "internalType": "string",
                    "name": "",
                    "type": "string"
                }
            ],
            "stateMutability": "pure",
            "type": "function"
        },
        {
            "inputs": [
                {
                    "internalType": "address",
                    "name": "owner",
                    "type": "address"
                }
            ],
            "name": "initialize",
            "outputs": [],
            "stateMutability": "nonpayable",
            "type": "function"
        },
        {
            "inputs": [
                {
                    "internalType": "bytes32",
                    "name": "handle",
                    "type": "bytes32"
                },
                {
                    "internalType": "address",
                    "name": "account",
                    "type": "address"
                }
            ],
            "name": "isAllowed",
            "outputs": [
                {
                    "internalType": "bool",
                    "name": "",
                    "type": "bool"
                }
            ],
            "stateMutability": "view",
            "type": "function"
        },
        {
            "inputs": [
                {
                    "internalType": "bytes32",
                    "name": "handle",
                    "type": "bytes32"
                }
            ],
            "name": "isAllowedForDecryption",
            "outputs": [
                {
                    "internalType": "bool",
                    "name": "",
                    "type": "bool"
                }
            ],
            "stateMutability": "view",
            "type": "function"
        },
        {
            "inputs": [
                {
                    "internalType": "bytes32",
                    "name": "handle",
                    "type": "bytes32"
                },
                {
                    "internalType": "address",
                    "name": "account",
                    "type": "address"
                }
            ],
            "name": "isAllowedForDecryption",
            "outputs": [
                {
                    "internalType": "bool",
                    "name": "",
                    "type": "bool"
                }
            ],
            "stateMutability": "view",
            "type": "function"
        },
        {
            "inputs": [],
            "name": "owner",
            "outputs": [
                {
                    "internalType": "address",
                    "name": "",
                    "type": "address"
                }
            ],
            "stateMutability": "view",
            "type": "function"
        },
        {
            "inputs": [
                {
                    "internalType": "bytes32",
                    "name": "handle",
                    "type": "bytes32"
                },
                {
                    "internalType": "address",
                    "name": "account",
                    "type": "address"
                }
            ],
            "name": "persistAllowed",
            "outputs": [
                {
                    "internalType": "bool",
                    "name": "",
                    "type": "bool"
                }
            ],
            "stateMutability": "view",
            "type": "function"
        },
        {
            "inputs": [],
            "name": "renounceOwnership",
            "outputs": [],
            "stateMutability": "nonpayable",
            "type": "function"
        },
        {
            "inputs": [
                {
                    "internalType": "address",
                    "name": "addr",
                    "type": "address"
                }
            ],
            "name": "setFheExecutorAddress",
            "outputs": [],
            "stateMutability": "nonpayable",
            "type": "function"
        },
        {
            "inputs": [
                {
                    "internalType": "address",
                    "name": "newOwner",
                    "type": "address"
                }
            ],
            "name": "transferOwnership",
            "outputs": [],
            "stateMutability": "nonpayable",
            "type": "function"
        }
    ],
    "bytecode": "0x608060405234801561000f575f80fd5b50610f7f8061001d5f395ff3fe608060405234801561000f575f80fd5b5060043610610115575f3560e01c806382027b6d116100ad578063c4d66de81161007d578063f2fde38b11610063578063f2fde38b14610295578063f4d9c9df146102a8578063fadd2246146102bb575f80fd5b8063c4d66de81461026f578063ef3571db14610282575f80fd5b806382027b6d146101fc5780638da5cb5b1461020f578063b9496b6214610249578063c0d029431461025c575f80fd5b806335334c23116100e857806335334c23146101c65780633e395cec146101ce578063715018a6146101e157806374b79a5a146101e9575f80fd5b80630d8e6e2c146101195780631162dc8b146101375780631e2f86ba1461014c57806325610681146101b3575b5f80fd5b6101216102ce565b60405161012e9190610cd6565b60405180910390f35b61014a610145366004610d23565b61032f565b005b6101a361015a366004610d3c565b5f9182527f31bf31e8cacfdd78fe4be4479b2612f91d54e60094c080a2b577c4edba0e5b00602090815260408084206001600160a01b0393909316845291905290205460ff1690565b604051901515815260200161012e565b61014a6101c1366004610d66565b610365565b61014a610469565b61014a6101dc366004610d3c565b61048e565b61014a610524565b6101a36101f7366004610d3c565b610537565b6101a361020a366004610d3c565b61058a565b7f9016d09d72d40fdae2fd8ceac6b6234c7706214fd39c1cd1e609a0528c199300546040516001600160a01b03909116815260200161012e565b61014a610257366004610d3c565b6105e7565b6101a361026a366004610da6565b610694565b61014a61027d366004610d23565b6106a5565b61014a610290366004610d3c565b610808565b61014a6102a3366004610d23565b610817565b6101a36102b6366004610d3c565b610854565b61014a6102c9366004610dd1565b6108dc565b6060604051806040016040528060038152602001621050d360ea1b8152506102f55f6109da565b6102ff60016109da565b6103085f6109da565b60405160200161031b9493929190610e8a565b604051602081830303815290604052905090565b610337610a77565b5f805473ffffffffffffffffffffffffffffffffffffffff19166001600160a01b0392909216919091179055565b5f81600281111561037857610378610f07565b0361038c5761038783836105e7565b505050565b60018160028111156103a0576103a0610f07565b036103af57610387838361048e565b7f31bf31e8cacfdd78fe4be4479b2612f91d54e60094c080a2b577c4edba0e5b006103da843361058a565b6103fe576040516368692cbb60e11b81523360048201526024015b60405180910390fd5b5f8481526001828101602090815260408084206001600160a01b03881680865290835293819020805460ff1916909317909255905186815233917fe2e1decee6e05ee246cd7c7f1337d25cdfd41dcbdcf8c57b61630be56cc7366a910160405180910390a350505050565b5f5c5f805d600190810190805b8281101561038757805c5f825d5f815d508101610476565b5f546001600160a01b031633146104c8576104a9823361058a565b6104c8576040516368692cbb60e11b81523360048201526024016103f5565b5f82826040516020016104f792919091825260601b6bffffffffffffffffffffffff1916602082015260340190565b6040516020818303038152906040528051906020012090506001815d60015f5c0181815d805f5d50505050565b61052c610a77565b6105355f610ad2565b565b5f805f848460405160200161056892919091825260601b6bffffffffffffffffffffffff1916602082015260340190565b60408051808303601f1901815291905280516020909101205c95945050505050565b5f6105958383610537565b806105e057505f8381527f31bf31e8cacfdd78fe4be4479b2612f91d54e60094c080a2b577c4edba0e5b00602090815260408083206001600160a01b038616845290915290205460ff165b9392505050565b7f31bf31e8cacfdd78fe4be4479b2612f91d54e60094c080a2b577c4edba0e5b00610612833361058a565b610631576040516368692cbb60e11b81523360048201526024016103f5565b5f838152602082815260408083206001600160a01b03861680855290835292819020805460ff191660011790555185815233917fe2e1decee6e05ee246cd7c7f1337d25cdfd41dcbdcf8c57b61630be56cc7366a910160405180910390a3505050565b5f61069f8233610854565b92915050565b5f6106ae610b4f565b805490915060ff68010000000000000000820416159067ffffffffffffffff165f811580156106da5750825b90505f8267ffffffffffffffff1660011480156106f65750303b155b905081158015610704575080155b156107225760405163f92ee8a960e01b815260040160405180910390fd5b845467ffffffffffffffff19166001178555831561075657845468ff00000000000000001916680100000000000000001785555b6001600160a01b0386166107ac5760405162461bcd60e51b815260206004820152601460248201527f4f776e65722063616e6e6f74206265207a65726f00000000000000000000000060448201526064016103f5565b6107b586610b77565b831561080057845468ff000000000000000019168555604051600181527fc7f505b2f371ae2175ee4913f4499e1f2633a7b5936321eed1cdaeb6115181d29060200160405180910390a15b505050505050565b61081382825f610365565b5050565b61081f610a77565b6001600160a01b03811661084857604051631e4fbdf760e01b81525f60048201526024016103f5565b61085181610ad2565b50565b5f8281527f31bf31e8cacfdd78fe4be4479b2612f91d54e60094c080a2b577c4edba0e5b0260205260408120547f31bf31e8cacfdd78fe4be4479b2612f91d54e60094c080a2b577c4edba0e5b009060ff16806108d457505f84815260018201602090815260408083206001600160a01b038716845290915290205460ff165b949350505050565b80515f8190036108ff5760405163385e8ccb60e11b815260040160405180910390fd5b7f31bf31e8cacfdd78fe4be4479b2612f91d54e60094c080a2b577c4edba0e5b005f5b82811015610993575f84828151811061093d5761093d610f1b565b60200260200101519050610951813361058a565b610970576040516368692cbb60e11b81523360048201526024016103f5565b5f9081526002830160205260409020805460ff1916600190811790915501610922565b50336001600160a01b03167fd913ac93a959116526793ef772233273d5249597d33cddfdc34f29920541fd0a846040516109cd9190610f2f565b60405180910390a2505050565b60605f6109e683610b88565b60010190505f8167ffffffffffffffff811115610a0557610a05610dbd565b6040519080825280601f01601f191660200182016040528015610a2f576020820181803683370190505b5090508181016020015b5f19017f3031323334353637383961626364656600000000000000000000000000000000600a86061a8153600a8504945084610a3957509392505050565b33610aa97f9016d09d72d40fdae2fd8ceac6b6234c7706214fd39c1cd1e609a0528c199300546001600160a01b031690565b6001600160a01b0316146105355760405163118cdaa760e01b81523360048201526024016103f5565b7f9016d09d72d40fdae2fd8ceac6b6234c7706214fd39c1cd1e609a0528c199300805473ffffffffffffffffffffffffffffffffffffffff1981166001600160a01b03848116918217845560405192169182907f8be0079c531659141344cd1fd0a4f28419497f9722a3daafe3b4186f6b6457e0905f90a3505050565b5f807ff0c57e16840df040f15088dc2f81fe391c3923bec73e23a9662efc9c229c6a0061069f565b610b7f610c69565b61085181610c8e565b5f807a184f03e93ff9f4daa797ed6e38ed64bf6a1f0100000000000000008310610bd0577a184f03e93ff9f4daa797ed6e38ed64bf6a1f010000000000000000830492506040015b6d04ee2d6d415b85acef81000000008310610bfc576d04ee2d6d415b85acef8100000000830492506020015b662386f26fc100008310610c1a57662386f26fc10000830492506010015b6305f5e1008310610c32576305f5e100830492506008015b6127108310610c4657612710830492506004015b60648310610c58576064830492506002015b600a831061069f5760010192915050565b610c71610c96565b61053557604051631afcd79f60e31b815260040160405180910390fd5b61081f610c69565b5f610c9f610b4f565b5468010000000000000000900460ff16919050565b5f5b83811015610cce578181015183820152602001610cb6565b50505f910152565b602081525f8251806020840152610cf4816040850160208701610cb4565b601f01601f19169190910160400192915050565b80356001600160a01b0381168114610d1e575f80fd5b919050565b5f60208284031215610d33575f80fd5b6105e082610d08565b5f8060408385031215610d4d575f80fd5b82359150610d5d60208401610d08565b90509250929050565b5f805f60608486031215610d78575f80fd5b83359250610d8860208501610d08565b9150604084013560038110610d9b575f80fd5b809150509250925092565b5f60208284031215610db6575f80fd5b5035919050565b634e487b7160e01b5f52604160045260245ffd5b5f6020808385031215610de2575f80fd5b823567ffffffffffffffff80821115610df9575f80fd5b818501915085601f830112610e0c575f80fd5b813581811115610e1e57610e1e610dbd565b8060051b604051601f19603f83011681018181108582111715610e4357610e43610dbd565b604052918252848201925083810185019188831115610e60575f80fd5b938501935b82851015610e7e57843584529385019392850192610e65565b98975050505050505050565b5f8551610e9b818460208a01610cb4565b61103b60f11b9083019081528551610eba816002840160208a01610cb4565b808201915050601760f91b8060028301528551610ede816003850160208a01610cb4565b60039201918201528351610ef9816004840160208801610cb4565b016004019695505050505050565b634e487b7160e01b5f52602160045260245ffd5b634e487b7160e01b5f52603260045260245ffd5b602080825282518282018190525f9190848201906040850190845b81811015610f6657835183529284019291840191600101610f4a565b5090969550505050505056fea164736f6c6343000818000a",
    "linkReferences": {},
    "deployedLinkReferences": {}
}